:020000040800F2
:100000000050002021390008F92C0008FB2C0008C2
:10001000FD2C0008FF2C0008012D00080000000046
:100020000000000000000000000000006111000856
:10003000032D00080000000001120008451200080E
:100040006939000869390008693900086939000808
:1000500069390008693900086939000869390008F8
:1000600069390008693900086939000869390008E8
:1000700069390008693900086939000869390008D8
:1000800069390008693900086939000869390008C8
:1000900069390008693900086939000869390008B8
:1000A00069390008052D0008693900086939000818
:1000B0006939000869390008693900086939000898
:1000C0006939000869390008693900086939000888
:1000D0006939000869390008693900086939000878
:1000E0006939000869390008693900080000000012
:1000F0000000000000000000000000000000000000
:0C01000000000000000000005FF808F1A3
:10011000034613F8012B002AFBD1181A0138704747
:1001200080F0004002E000BF81F0004142001FBFAC
:100130005FEA410392EA030F7FEA226C7FEA236CB5
:100140006AD04FEA1262D2EB1363C1BFD2184140AA
:1001500048404140B8BF5B42192B88BF704710F040
:10016000004F40F4000020F07F4018BF404211F0E3
:10017000004F41F4000121F07F4118BF494292EA4B
:10018000030F3FD0A2F1010241FA03FC10EB0C0077
:10019000C3F1200301FA03F100F0004302D5494204
:1001A00060EB4000B0F5000F13D3B0F1807F06D3B1
:1001B00040084FEA310102F10102FE2A51D2B1F1A9
:1001C000004F40EBC25008BF20F0010040EA03009E
:1001D0007047490040EB0000013A28BFB0F5000F1E
:1001E000EDD2B0FA80FCACF1080CB2EB0C0200FAD4
:1001F0000CF0AABF00EBC25052421843BCBFD04023
:100200001843704792F0000F81F4000106BF80F49C
:1002100000000132013BB5E74FEA41037FEA226C5F
:1002200018BF7FEA236C21D092EA030F04D092F02A
:10023000000F08BF0846704790EA010F1CBF00205E
:10024000704712F07F4F04D1400028BF40F00040BB
:10025000704712F100723CBF00F50000704700F0DB
:10026000004343F0FE4040F4000070477FEA226202
:1002700016BF08467FEA23630146420206BF5FEAD3
:10028000412390EA010F40F4800070474FF00003D3
:1002900004E000BF10F0004348BF40425FEA000C9A
:1002A00008BF704743F0964301464FF000001CE042
:1002B00050EA010208BF70474FF000030AE000BF98
:1002C00050EA010208BF704711F0004302D54042D6
:1002D00061EB41015FEA010C02BF84460146002048
:1002E00043F0B64308BFA3F18053A3F50003BCFA63
:1002F0008CF2083AA3EBC25310DB01FA02FC634410
:1003000000FA02FCC2F12002BCF1004F20FA02F216
:1003100043EB020008BF20F00100704702F1200209
:1003200001FA02FCC2F1200250EA4C0021FA02F26A
:1003300043EB020008BF20EADC7070474FF0FF0C6F
:100340001CEAD0521EBF1CEAD15392EA0C0F93EA6A
:100350000C0F6FD01A4480EA010C400218BF5FEA0C
:1003600041211ED04FF0006343EA501043EA51117F
:10037000A0FB01310CF00040B1F5000F3EBF490079
:1003800041EAD3715B0040EA010062F17F02FD2A7D
:100390001DD8B3F1004F40EBC25008BF20F0010060
:1003A000704790F0000F0CF0004C08BF49024CEA77
:1003B000502040EA51207F3AC2BFD2F1FF0340EA09
:1003C000C250704740F400004FF00003013A5DDC7A
:1003D00012F1190FDCBF00F000407047C2F10002BB
:1003E000410021FA02F1C2F1200200FA02FC5FEAA8
:1003F000310040F1000053EA4C0308BF20EADC70F2
:10040000704792F0000F00F0004C02BF400010F463
:10041000000F013AF9D040EA0C0093F0000F01F010
:10042000004C02BF490011F4000F013BF9D041EA32
:100430000C018FE70CEAD15392EA0C0F18BF93EA34
:100440000C0F0AD030F0004C18BF31F0004CD8D15E
:1004500080EA010000F00040704790F0000F17BFE5
:1004600090F0004F084691F0000F91F0004F14D02B
:1004700092EA0C0F01D142020FD193EA0C0F03D183
:100480004B0218BF084608D180EA010000F0004086
:1004900040F0FE4040F40000704740F0FE4040F461
:1004A000400070474FF0FF0C1CEAD0521EBF1CEA00
:1004B000D15392EA0C0F93EA0C0F69D0A2EB03021E
:1004C00080EA010C49024FEA402037D04FF08053B8
:1004D00043EA111143EA10130CF000408B4238BF7D
:1004E0005B0042F17D024FF4000C8B4224BF5B1A8B
:1004F00040EA0C00B3EB510F24BFA3EB510340EAD9
:100500005C00B3EB910F24BFA3EB910340EA9C0086
:10051000B3EBD10F24BFA3EBD10340EADC001B01F6
:1005200018BF5FEA1C1CE0D1FD2A3FF650AF8B429A
:1005300040EBC25008BF20F0010070470CF0004CA7
:100540004CEA50207F32C2BFD2F1FF0340EAC250D2
:10055000704740F400004FF00003013A37E792F093
:10056000000F00F0004C02BF400010F4000F013AF1
:10057000F9D040EA0C0093F0000F01F0004C02BFEC
:10058000490011F4000F013BF9D041EA0C0195E755
:100590000CEAD15392EA0C0F08D142027FF47DAFEE
:1005A00093EA0C0F7FF470AF084676E793EA0C0FDE
:1005B00004D14B023FF44CAF08466EE730F0004CDC
:1005C00018BF31F0004CCAD130F000427FF45CAF6C
:1005D00031F000437FF43CAF5FE700BF4FF0FF3CDA
:1005E00006E000BF4FF0010C02E000BF4FF0010C2D
:1005F0004DF804CD4FEA40024FEA41037FEA226CF6
:1006000018BF7FEA236C11D001B052EA530C18BF17
:1006100090EA010F58BFB2EB030088BFC81738BF7C
:100620006FEAE17018BF40F0010070477FEA226C6A
:1006300002D15FEA402C05D17FEA236CE4D15FEA66
:10064000412CE1D05DF8040B704700BF844608469A
:100650006146FFE70FB5FFF7C9FF002848BF10F15B
:10066000000F0FBD4DF808EDFFF7F4FF0CBF0120A0
:1006700000205DF808FB00BF4DF808EDFFF7EAFF2A
:1006800034BF012000205DF808FB00BF4DF808EDE5
:10069000FFF7E0FF94BF012000205DF808FB00BFDA
:1006A0004DF808EDFFF7D2FF94BF012000205DF860
:1006B00008FB00BF4DF808EDFFF7C8FF34BF01206D
:1006C00000205DF808FB00BF4FEA40024FEA4103FB
:1006D0007FEA226C02D15FEA402C08D17FEA236CCA
:1006E00002D15FEA412C02D14FF0000070474FF079
:1006F0000100704742000ED2B2F1FE4F0BD34FF013
:100700009E03B3EB126209D44FEA002343F0004387
:1007100023FA02F070474FF00000704712F1610FAA
:1007200001D1420202D14FF0FF3070474FF000007C
:10073000704700BF0348044B834202D0034B03B110
:1007400018477047AC010020AC01002000000000F9
:100750000548064B1B1AD90F01EBA301491002D023
:10076000034B03B118477047AC010020AC010020D7
:100770000000000010B5064C237843B9FFF7DAFFFC
:10078000044B13B10448AFF300800123237010BD64
:10079000AC010020000000006444000808B5054BCF
:1007A0001BB105490548AFF30080BDE80840FFF7DD
:1007B000CFBF00BF00000000B0010020644400086B
:1007C00008B502F0A5FC002008BD08B500B901205D
:1007D00002F0E8FD002008BD08B501464FF07E504C
:1007E000FFF7A2FC044903F01FF901464FF07E50C9
:1007F000FFF79AFC08BD00BF000040402DE9F04122
:1008000006460C461D469DF81870BB4200D9027082
:10081000A2421FD2A01AFFF73DFD80463846FFF7DF
:1008200039FD01464046FFF73DFE07462846FFF7E3
:1008300031FD3946FFF782FD05462046FFF72AFDC8
:100840002946FFF771FC03F0CBF8FFF753FF307038
:10085000BDE8F081101BFFF71DFD80463846FFF70D
:1008600019FD01464046FFF71DFE07462846FFF7E3
:1008700011FD3946FFF762FD05462046FFF70AFDE8
:100880002946FFF753FC03F0ABF8FFF733FF307056
:10089000DEE72DE9F04106460C46154618469DF860
:1008A0001880434500D93270FFF7F0FC07464046F8
:1008B000FFF7F0FC01463846FFF7F4FDFFF78CFF29
:1008C0000746A54214D2601BFFF7E4FC01463846F8
:1008D000FFF734FD05462046FFF7DCFC2946FFF70D
:1008E00023FC03F07DF8FFF705FF3070BDE8F081D1
:1008F000281BFFF7CFFC01463846FFF71FFD0546D2
:100900002046FFF7C7FC2946FFF710FC03F068F804
:10091000FFF7F0FE3070E9E710B582B0044610F83A
:10092000063B009363782279A178FFF767FF2046A2
:1009300010F8073B009363786279E178FFF75EFF78
:1009400002B010BD10B582B0044610F8063B00930B
:1009500063782279A178FFF79CFF204610F8073BC7
:10096000009363786279E178FFF793FF02B010BDDE
:1009700010B50446037853B101290DD0FFF7CCFF21
:1009800063782278934206D80133637003E00379D9
:1009900083714379C37110BDFFF7D4FFF0E7000006
:1009A00000B585B04FF4FA730293019100900123D2
:1009B00040227821024801F0F5FA05B05DF804FB09
:1009C0008430002000B585B000238DF80C308DF800
:1009D0000D004FF4FA730093022303AA7821034811
:1009E00001F024FA05B05DF804FB00BF843000205C
:1009F000022800D9704710B504462020FFF7E2FF17
:100A00002046FFF7DFFF014B1C7010BD00000020E7
:100A1000A0F10F03DBB2302B00D9704710B50446AC
:100A2000A820FFF7CFFF2046FFF7CCFF10BD3F28DF
:100A300000D9704710B50446D320FFF7C3FF204606
:100A4000FFF7C0FF10BD3F2800D9704708B5403000
:100A5000C0B2FFF7B7FF08BD10B504468120FFF70D
:100A6000B1FF2046FFF7AEFF10BD0F280FD838B5F5
:100A700005460C460F2900D938BDD520FFF7A2FF47
:100A80002101C9B24819C0B2FFF79CFFF4E77047D3
:100A9000012800D9704710B504468D20FFF792FF5A
:100AA000A000C0B2103000F0FC00FFF78BFF10BDBB
:100AB000012814D838B504460D46012900D938BD9F
:100AC000DA20FFF77FFF2001C0B26901C9B20844F4
:100AD000C0B2023000F0FE00FFF774FFEFE770478E
:100AE00008B5064B1B78022B01D1072800D908BD99
:100AF0005038C0B2FFF766FFF9E700BF00000020E2
:100B0000094B1B78022B0DD110B5044610F0800F55
:100B100007D100F00F00FFF755FF20091030FFF755
:100B200051FF10BD704700BF0000002000B585B028
:100B30004FF4FA730293019100900123402278212F
:100B4000024801F02FFA05B05DF804FB8430002064
:100B500008B50220FFF74CFF3F20FFF759FF0020A8
:100B6000FFF765FF0020FFF76EFFA120FFF72AFFC8
:100B7000C820FFF727FF00210846FFF799FF7F20D5
:100B8000FFF76AFFA420FFF71DFFA620FFF71AFF5B
:100B900008210020FFF769FF0120FFF779FF0021FE
:100BA0000120FFF785FFAF20FFF70CFF08BD10B550
:100BB0000C46FFF795FF2046FFF7A2FF10BD10B5CA
:100BC000A0B080220021684602F0CFFE002409E098
:100BD00000212046FFF7EBFF80216846FFF7E0FE8B
:100BE0000134E4B2072CF3D920B010BD034B0360ED
:100BF000034B0B6080231360704700BFC8030020C5
:100C0000C8010020124A12F0070F1ED0D11D21F09A
:100C10000701C1F5305313440A460E480260002113
:100C200041601344083B23F007030B4803605960FD
:100C30001960991A51601360084B1960084B1960CC
:100C4000084B4FF000421A6070474FF43053E4E70E
:100C50003C0400203404002030040020280400203C
:100C60002C0400201C040020154B1A461B688342EC
:100C7000FBD3516802EB010C844509D0416800EBBD
:100C8000010C634509D00360904218D01060704792
:100C90004068014451601046F0E710B4094C2468E4
:100CA000A3420AD05B681944416013681B68036063
:100CB000904200D0106010BC70470460F8E77047A5
:100CC000340400203004002038B5044602F05AFAFB
:100CD000384B1B68B3B1384B1B681C4250D1002CF9
:100CE00050D004F1080214F0070F02D022F00702DE
:100CF0000832002A55D0314B1B68934253D33049F8
:100D00000C6804E0FFF77EFFE5E721461C466368B8
:100D1000934202D22368002BF7D1264B1B68A342D3
:100D200043D00D68083523680B6063689B1A102B4D
:100D300010D9A01810F0070F08D04FF0500383F31C
:100D40001188BFF36F8FBFF34F8FFEE74360626080
:100D5000FFF78AFF626819490B689B1A0B601949F3
:100D600009688B4201D217490B60134B1B68134370
:100D7000636000232360144A13680133136002E0A8
:100D8000002500E0002502F091FA15F0070F0ED0C3
:100D90004FF0500383F31188BFF36F8FBFF34F8F72
:100DA000FEE70025EFE70025EDE70025EBE7284605
:100DB00038BD00BF300400201C0400202C0400209B
:100DC000340400202804002024040020002834D00B
:100DD00038B50446A0F1080550F8043C174A1268DB
:100DE000134208D14FF0500383F31188BFF36F8F84
:100DF000BFF34F8FFEE750F8081C41B14FF050038E
:100E000083F31188BFF36F8FBFF34F8FFEE723EAA1
:100E1000020340F8043C02F0B5F954F8041C084AF7
:100E200013680B4413602846FFF71EFF054A13683A
:100E30000133136002F03AFA38BD70471C040020F9
:100E40002C0400202004002000F1080343604FF030
:100E5000FF328260C3600361002303607047002398
:100E60000361704743684B609A688A60516099607B
:100E70000861036801330360704730B40D68B5F151
:100E8000FF3F11D000F108031C465B681A68AA42B4
:100E9000FAD963684B6099608C606160086103688F
:100EA0000133036030BC70470469F2E703694168AD
:100EB00082688A60416851605A68824206D0002286
:100EC00002611A68013A1A601868704782685A60AD
:100ED000F5E7000084B00F4B9A6942F020029A6156
:100EE0009A6902F020020192019A9A6942F0040282
:100EF0009A619A6902F004020292029A9A6942F097
:100F000008029A619B6903F008030393039B04B0F2
:100F1000704700BF0010024008B502F037FBFCE745
:100F200008B50268034B9A4200D008BD00F01CFBD4
:100F3000FBE700BF002C014072B6FEE708B50A4887
:100F40000A4B03600A4B436000238360C3604FF485
:100F50008042026143618361C361036200F088FEE5
:100F600000B908BDFFF7E8FF8430002000540040BE
:100F7000801A060008B50A480A4B03604FF4E133B3
:100F8000436000238360C36003610C22426183617C
:100F9000C36101F081FE00B908BDFFF7CDFF00BFBE
:100FA0003C3000200038014000B591B028220021DB
:100FB00006A802F0DAFC0023019302930393049342
:100FC0000593012206924FF4803307930A9202227E
:100FD0000D920E934FF4E0130F9306A801F042F91F
:100FE00080B90F23019302210291002303934FF450
:100FF00080620492059301A801F066FB20B911B04C
:101000005DF804FBFFF798FFFFF796FF00B583B08C
:1010100000F098FAFFF7C8FFFFF75CFFFFF78EFFBD
:10102000FFF7A8FFFFF794FDFFF7C9FD002101912D
:1010300000910B464FF4A062024802F036F8FFF729
:10104000BFFBFEE7190F000810B50446FFF760F874
:10105000C1B20023184604E00130C0B201340133AC
:10106000DBB28B4209D294F90020002AF4DA023074
:10107000C0B20133DBB20134F0E710BD70B50C46ED
:10108000154600211EE090F800E001EB430C124AE7
:1010900002EB0E1E1EF8036004F80C60067803F1E4
:1010A000080E0CF1010C02EB061212F80EE004F827
:1010B0000CE00133DBB2072BE5D90130103189B2E6
:1010C000013DEDB23DB190F90030002B01DA013065
:1010D000F3E70023EFE770BD7C44000882B00023F3
:1010E00001930D4B1B68B3F1FF3F08D04FF0500345
:1010F00083F31188BFF36F8FBFF34F8FFEE74FF07D
:10110000500383F31188BFF36F8FBFF34F8F019BA1
:10111000002BFCD002B07047040000200648006895
:10112000006880F3088862B661B6BFF34F8FBFF3E3
:101130006F8F00DF00BF000008ED00E04FF080730C
:1011400040F8043C21F0010140F8081C034B40F832
:101150000C3C40F8202C4038704700BFDD100008E0
:10116000074B19680868B0E8F00F80F30988BFF3EF
:101170006F8F4FF0000080F311884EF00D0E704716
:101180006C3200204FF0500383F31188BFF36F8F50
:10119000BFF34F8F0B4A136801331360012B00D04C
:1011A00070474FF0E023D3F8043D13F0FF0FF7D062
:1011B0004FF0500383F31188BFF36F8FBFF34F8F4E
:1011C000FEE700BF04000020094B1B6843B94FF045
:1011D000500383F31188BFF36F8FBFF34F8FFEE788
:1011E000013B034A13600BB983F31188704700BFBA
:1011F00004000020000000000000000000000000CB
:10120000EFF30980BFF36F8F0D4B1A6820E9F00FE1
:1012100010602DE908404FF0500080F3118802F073
:10122000E7F84FF0000080F31188BDE80840196826
:101230000868B0E8F00F80F30988BFF36F8F70473C
:101240006C32002008B54FF0500383F31188BFF3D0
:101250006F8FBFF34F8F01F09DFF28B14FF0E02358
:101260004FF08052C3F8042D002383F3118808BD8A
:101270004FF0E022002313619361054B1B68054981
:10128000A1FB03139B09013B5361072313617047C3
:1012900010000020D34D621010B582B02A4B1A788E
:1012A000D2B20192FF221A701B78DBB28DF80330A4
:1012B0009DF8033003F05003244A1370244B072297
:1012C0001A6009E0224A1368013B13609DF803305D
:1012D0005B00DBB28DF803309DF8033013F0800F14
:1012E000F0D11B4B1B68032B08D04FF0500383F346
:1012F0001188BFF36F8FBFF34F8FFEE71B02144AB5
:10130000136003F4E0631360019BDBB20E4A1370B9
:101310004FF0E023D3F8202D42F47002C3F8202DC3
:10132000D3F8202D42F07042C3F8202DFFF7A0FF24
:101330000024084B1C60FFF7F1FE02F059F8FFF79C
:10134000CDFE204602B010BD00E400E0DC300020FD
:10135000D8300020040000200E4A13780133DBB29D
:1013600013700A2B07D80C4B5A68802111805B68D8
:1013700040225A80704710B5074C0121E068FFF702
:10138000F7FAE268636892791A80E2686368D27952
:101390005A8010BDDD300020E030002038B5054611
:1013A000104C0121E068FFF7E3FAE2686368927984
:1013B0001A80E2686368D2795A800121A068FFF739
:1013C000D7FAA26863689279DA80A2686368D279F2
:1013D0001A81E3681A785B789A4200D038BD236995
:1013E0002B62FBE7E030002000B50288174BD9687C
:1013F000043A0A714188DA6851715A681188DA68CA
:1014000091705A685188DA68D170DA684FF0140C1C
:1014100082F800C0DA6800215170C2880832D3F81F
:1014200008E08EF8042000899A6850715A68D088C4
:101430009A6890705A6810899A68D0709A6882F891
:1014400000C09B6859705DF804FB00BFE0300020CD
:1014500008B50F4BDB685A781B789A4201D00320FD
:1014600008BD0B4B1A69C3699A4206D0084A13613A
:10147000D869FFF7B9FF0220F2E75B695B695B6936
:10148000034A1361D869FFF7AFFF0220E8E700BF06
:10149000E030002010B50446FFF7DAFF144B187057
:1014A000012807D0032809D0124B586802F0F0F940
:1014B000002310E02046FFF74FFFF5E72046FFF737
:1014C0006DFFF1E7B3EBE20F0FDAC168CA5CD243FC
:1014D000CA5401339BB2074A5068C288018901FB94
:1014E00002F2002AEEDA0732ECE702F085F910BDCD
:1014F000DE300020E030002070B505461420FFF7F4
:10150000E3FB0F4B586028B104464FF48060FFF7AF
:10151000DBFBE0600820FFF7D7FB094EB06000243A
:10152000046044600820FFF7CFFBF0600460446073
:101530002B6AD869FFF758FFEB69336170BD00BFB4
:10154000E030002008B5074A136843F01003136029
:10155000032000F04FF80F2001F00AFB00F0D4FD4B
:10156000002008BD00200240034A1168034B1B788D
:101570000B441360704700BFF830002008000020C3
:10158000014B1868704700BFF8300020002808DBC6
:101590000901C9B200F1604000F5614080F8001314
:1015A000704700F00F000901C9B2014B1954704790
:1015B00014ED00E000B500F00700C0F1070CBCF12D
:1015C000040F28BF4FF0040C031D062B0FD9C31EB8
:1015D0004FF0FF3E0EFA0CF021EA000199400EFA9E
:1015E00003FE22EA0E0241EA02005DF804FB00233A
:1015F000EEE70000074AD36823F4E0631B041B0CEA
:10160000000200F4E060034343F0BF6343F400339F
:10161000D360704700ED00E010B50446054BD86874
:10162000C0F30220FFF7C6FF01462046FFF7AEFFDA
:1016300010BD00BF00ED00E0002807DB00F01F0236
:10164000400901239340024A42F82030704700BF0E
:1016500000E100E070B582B00024A446A1E07E4D18
:10166000AB4214D00CD8A5F58015AB420FD005F5D0
:101670007025AB420BD0A5F58015AB4210D106E02A
:10168000764DAB4203D005F58035AB4208D18B686F
:10169000002B50D0012B49D04261082400E0CC68D7
:1016A000BEF1FF0F49D806464FEA8C0233680F257A
:1016B000954023EA050304FA02F2134333604B68B2
:1016C00013F0805F6BD0664B9A6942F001029A6119
:1016D0009B6903F001030193019B4FEA9C02951C57
:1016E000604B53F825600CF00305AD000F23AB40B1
:1016F00026EA03065C4B984226D003F580639842A5
:1017000000F08C8003F58063984200F0898003F537
:101710008063984216D0042317E0CC680434BFE7F6
:10172000CC680834BCE7CC680C34B9E70261082403
:10173000B6E70024B4E70424B2E7061DACF10802C2
:101740009200B3E7032300E00023AB4033430232AF
:10175000444D45F822304B6813F4801F62D0434A51
:10176000936843EA0E0393604B6813F4001F5FD045
:101770003E4AD36843EA0E03D3604B6813F4003F3C
:101780005CD03A4A536843EA0E0353604B6813F443
:10179000803F59D0354A136843EA0E0313600CF1B9
:1017A000010C0B6833FA0CF254D0012202FA0CF24D
:1017B00003EA020E32EA0303F1D14B68122B3FF623
:1017C0004EAF122B3FF66CAF01A555F823F000BFCA
:1017D0008F1600089F16000821170008331700080D
:1017E000A1160008A1160008A1160008A1160008FD
:1017F000A1160008A1160008A1160008A1160008ED
:10180000A1160008A1160008A1160008A1160008DC
:10181000A11600081B17000827170008012394E7EA
:10182000022392E7114A936823EA0E0393609BE731
:101830000E4AD36823EA0E03D3609EE70B4A53682F
:1018400023EA0E035360A1E7084A136823EA0E0354
:101850001360A4E702B070BD000022100000311038
:101860000010024000000140000801400004014057
:1018700003685A6912F4806F01D1002070476FF439
:1018800080625A6100230363202280F83D2080F8A3
:101890003E30026C42F00402026480F83C300120C9
:1018A00070472DE9F04106460C46174698463BE046
:1018B000FFF766FE069BC01A404502D8B8F1000F3C
:1018C00032D1012D18D033689B6924EA03039BB2FF
:1018D000B3FA83F35B099F4226D1002333632022AE
:1018E00086F83D2086F83E30326C42F020023264A9
:1018F00086F83C30012027E033685B6924EA030363
:101900009BB2B3FA83F35B09E5E733685B6924EACA
:10191000030C1FFA8CFCBCFA8CFC4FEA5C1C67457C
:1019200011D1B8F1FF3FC3D1C4F30745012DECD06D
:1019300033689B6924EA030C1FFA8CFCBCFA8CFC0C
:101940004FEA5C1CEBE70020BDE8F0812DE9F8438D
:1019500005460E469046994653E01A6842F40072D6
:101960001A602B686FF480625A6100232B63202277
:1019700085F83D2085F83E302A6C42F004022A6446
:1019800085F83C3001204AE0FFF7FAFDA0EB0900A2
:10199000404502D8B8F1000F33D1012F17D02B6882
:1019A0009B6926EA03039BB2003B18BF012343B3A4
:1019B00000232B63202285F83D2085F83E302A6CD9
:1019C00042F020022A6485F83C30012027E02B6891
:1019D0005B6926EA03039BB2003B18BF0123E6E7DD
:1019E0002B689C6926EA0404A4B2003C18BF0124B9
:1019F000A4B12B685A6912F4806FAED1B8F1FF3FE1
:101A0000C2D1C6F30747012FEAD12B685C6926EAE9
:101A10000404A4B2003C18BF0124E9E70020BDE89B
:101A2000F8830000F0B583B004460D4616461F4605
:101A3000C36A082B0DD0012B0BD013F5803F08D0C3
:101A4000036B122B0AD10268136843F4807313608E
:101A500004E02268136843F48073136000973346F0
:101A600000224FF001112046FFF71BFF80B92369C8
:101A7000B3F5804F16D1236805F0FE051D613B4686
:101A8000324613492046FFF761FFF8B903B0F0BDB5
:101A900023681B6813F4807F02D04FF40073236423
:101AA0000320F3E7EB11226803F0060343F0F00391
:101AB00013613B46324607492046FFF747FF18B9F6
:101AC0002368EDB21D61DAE70120DFE70120DDE7E1
:101AD000020001000800010070B504460D461646DC
:101AE00023685B6913F0800F21D12046FFF7C0FE09
:101AF000F8B9B5F1FF3FF3D0FFF742FD801BA842D4
:101B000001D8002DECD123685B6913F0800FE7D179
:101B100000232363202284F83D2084F83E30226C89
:101B200042F02002226484F83C30012000E00020D2
:101B300070BD0120FCE700002DE9F04385B00446AC
:101B40000D4691461F46DDF830800D9E03681968EA
:101B500041F4807119600096434600224FF0011154
:101B6000FFF79FFE60B9236805F0FE051D6133464F
:101B7000424626492046FFF7E9FE68B1012008E009
:101B800023681B6813F4807F02D04FF40073236432
:101B9000032005B0BDE8F0830023039323685A694E
:101BA00003929B690393039B324641462046FFF70D
:101BB00093FF30B9012F0FD123685FFA89F61E61B8
:101BC000E7E7236C042B01D00120E2E722681368C9
:101BD00043F400731360F7E723684FEA19221A6190
:101BE000324641462046FFF777FF20B923685FFA67
:101BF00089F61E61CDE7236C042B01D00120C8E7D4
:101C00002268136843F400731360F7E702000100D1
:101C100070B504460D46164623685B6913F0040F41
:101C200021D12046FFF724FEF8B9B5F1FF3FF3D0EC
:101C3000FFF7A6FC801BA84201D8002DECD1236839
:101C40005B6913F0040FE7D100232363202284F89B
:101C50003D2084F83E30226C42F02002226484F859
:101C60003C30012000E0002070BD0120FCE70000B6
:101C7000002800F0CC8070B5044690F83D30002B71
:101C800077D0242384F83D302268136823F00103C1
:101C900013602268136843F40043136022681368DA
:101CA00023F40043136000F0CBFD62685A4B9A4264
:101CB00064D85A4B98428CBF00230123002B40F07C
:101CC000A8805749A1FB00318B0C25686A6822F077
:101CD0003F0242EA91426A6021680A6A22F03F02AA
:101CE00066684D4DAE424FD8013313430B622168F5
:101CF000CA6922F44F4222F0FF026568464B9D42BA
:101D00004CD8431E6D00B3FBF5F3013340F6FC7075
:101D1000034278D0C3F30B031A43CA6121680B68EE
:101D200023F0C003E269206A024313430B60216879
:101D30008B6823F4034323F0FF032269E068024326
:101D400013438B602168CB6823F0FF036269A069AD
:101D500002431343CB602268136843F0010313600E
:101D600000202064202384F83D30206384F83E0066
:101D700070BD80F83C3000F0F1F982E7294B9842C1
:101D80008CBF0023012399E74FF4967505FB03F3FD
:101D9000254DA5FB03539B090133A6E7A668BEB9F1
:101DA000431E05EB450CB3FBFCF30133C3F30B03FC
:101DB000B3FA83F35B0943BBC6B9431E05EB450584
:101DC000B3FBF5F30133C3F30B0343F40043A3E781
:101DD000431E05EB850C0CEB8C0CB3FBFCF30133C1
:101DE000C3F30B03B3FA83F35B09E4E7431E05EB8C
:101DF000850505EB8505B3FBF5F30133C3F30B0351
:101E000043F4404388E7042386E7012384E7012065
:101E100070470120ACE700BFA08601007F841E0050
:101E200083DE1B43FF083D00D34D62102DE9F043D4
:101E300085B004460F46914698460C9EFFF7A0FBDE
:101E4000054694F83D00C0B2202804D00227384649
:101E500005B0BDE8F0830095192301224F492046C3
:101E6000FFF71FFD002840F0928094F83C30012BD2
:101E700000F08F80012384F83C3023681A6812F048
:101E8000010F03D11A6842F001021A602268136838
:101E900023F400631360212384F83D30102384F879
:101EA0003E3000232364C4F82490A4F82A80638D74
:101EB00023853B4BE3622B46324639462046FFF7EB
:101EC000B1FD0746002866D10023039323685A69B1
:101ED00003929B690393039B11E0236C042B01D0B5
:101EE0000127B4E72268136843F400731360F7E72F
:101EF0002A4631462046FFF78BFE00282ED1238D3F
:101F0000002B36D02A4631462046FFF7E5FD002853
:101F1000E3D1626A236812781A61606A431C6362C3
:101F2000618D89B2013989B26185238D013B9BB2F4
:101F300023852268516911F0040FD9D0002BD7D026
:101F400043781361636A01336362638D9BB2013B23
:101F50009BB26385238D013B2385C9E7236C042B4A
:101F600001D0012773E72268136843F400731360FC
:101F7000F7E72268136843F400731360202384F8A2
:101F80003D30002384F83E3084F83C305FE7022780
:101F90005DE702275BE7012759E700BF0200100059
:101FA0000000FFFF2DE9F04383B004460F46904642
:101FB00099460C9EFFF7E4FA054694F83D00C0B23E
:101FC000202803D0022003B0BDE8F0830095192338
:101FD00001224B492046FFF764FC002840F089802D
:101FE00094F83C30012B00F08680012384F83C30CB
:101FF00023681A6812F0010F03D11A6842F0010237
:102000001A602268136823F400631360212384F8A4
:102010003D30402384F83E30002323640A9B6362F2
:10202000BDF82C306385638D2385364BE3620195C3
:1020300000964B46424639462046FFF77DFD002874
:102040005BD1238D002B35D02A4631462046FFF741
:1020500043FD20BB626A236812781A61626A531CCE
:102060006362218D013989B22185638D9BB2013B69
:102070009BB263852368586910F0040FE1D00029F2
:10208000DFD052781A61636A01336362238D013BAA
:102090002385638D9BB2013B9BB26385D1E7236CA3
:1020A000042B01D001208EE72268136843F40073EB
:1020B0001360F7E72A4631462046FFF7A9FD50B1E5
:1020C000236C042B01D001207DE72268136843F4C0
:1020D00000731360F7E72268136843F4007313601A
:1020E000202384F83D30002384F83E3084F83C30CF
:1020F00069E7022067E7022065E7012063E700BF88
:10210000020010000000FFFF00B583B0114B9A6978
:1021100042F001029A619A6902F001020092009A6B
:10212000DA6942F08052DA61DB6903F0805301938F
:10213000019B00220F216FF00100FFF76DFA064AA4
:10214000536823F0E06343F00073536003B05DF81D
:1021500004FB00BF001002400000014010B586B033
:10216000002302930393049305930268114B9A4250
:1021700001D006B010BD104CA36943F00803A36161
:10218000A36903F008030093009BC023029312236A
:1021900003930323059302A90848FFF75BFAE36959
:1021A00043F40013E361E36903F400130193019B1B
:1021B000DFE700BF0054004000100240000C014067
:1021C00010B586B00023029303930493059302682D
:1021D000174B9A4201D006B010BD03F558439A69D7
:1021E00042F480429A619A6902F480420092009A15
:1021F0009A6942F004029A619B6903F00403019317
:10220000019B4FF40073029302230393032305936E
:10221000084C02A92046FFF71DFA4FF48063029391
:1022200000230393049302A92046FFF713FAD2E791
:10223000003801400008014082B0084B1B68084A82
:10224000A2FB03235B0A00FB03F3019300BF019B86
:102250005A1E0192002BF9D102B0704710000020E5
:10226000D34D6210002800F0F18170B582B00446B1
:10227000036813F0010F2CD0994B5B6803F00C033B
:10228000042B1DD0964B5B6803F00C03082B12D077
:102290006368B3F5803F41D0002B55D103F18043F3
:1022A00003F504331A6822F480321A601A6822F4A3
:1022B00080221A6037E08A4B5B6813F4803FE7D0D6
:1022C000874B1B6813F4003F03D06368002B00F0BA
:1022D000BF81236813F0020F75D0814B5B6813F048
:1022E0000C0F5FD07E4B5B6803F00C03082B54D0BF
:1022F0002369002B00F08A807A4B01221A60FFF7D5
:102300003FF90546764B1B6813F0020F75D1FFF7B6
:1023100037F9401B0228F5D903209EE1704A136863
:1023200043F480331360636843B3FFF729F905462C
:102330006B4B1B6813F4003FCBD1FFF721F9401B17
:102340006428F5D9032088E1B3F5A02F09D0644BA8
:102350001A6822F480321A601A6822F480221A6005
:10236000E1E703F18043A3F53C331A6842F480228D
:102370001A601A6842F480321A60D4E7FFF700F955
:102380000546574B1B6813F4003FA2D0FFF7F8F83F
:10239000401B6428F5D903205FE1514B5B6813F4BF
:1023A000803FA5D14E4B1B6813F0020F03D0236969
:1023B000012B40F04F814A4A136823F0F80361690A
:1023C00043EAC1031360236813F0080F33D0A369F5
:1023D000002B5CD0434B0122C3F88024FFF7D0F8D8
:1023E00005463F4B5B6A13F0020F21D1FFF7C8F897
:1023F000401B0228F5D903202FE1394A136823F046
:10240000F803616943EAC1031360DCE7354B00223E
:102410001A60FFF7B5F80546314B1B6813F0020F41
:10242000D1D0FFF7ADF8401B0228F5D9032014E105
:102430000120FFF701FF236813F0040F00F09680DE
:10244000274BDB6913F0805F34D1254BDA6942F00A
:102450008052DA61DB6903F080530193019B01250F
:10246000214B1B6813F4807F26D0E368012B3DD0FD
:10247000002B53D103F1804303F504331A6A22F091
:1024800001021A621A6A22F004021A6233E0154B42
:102490000022C3F88024FFF773F80546104B5B6AEF
:1024A00013F0020FC7D0FFF76BF8401B0228F5D9D5
:1024B0000320D2E00025D3E70B4A136843F480736E
:1024C0001360FFF75DF80646074B1B6813F4807F27
:1024D000CBD1FFF755F8801B6428F5D90320BCE069
:1024E0000010024000004242007000405F4A136A40
:1024F00043F001031362E36833B3FFF741F8064684
:102500005A4B1B6A13F0020F2FD1FFF739F8801BCB
:1025100041F288339842F3D903209EE0052B09D07D
:10252000524B1A6A22F001021A621A6A22F004025D
:102530001A62E0E74D4B1A6A42F004021A621A6A04
:1025400042F001021A62D6E7FFF71AF80646474B37
:102550001B6A13F0020F08D0FFF712F8801B41F23C
:1025600088339842F3D9032077E0E5B9E369002B7B
:1025700072D03E4A526802F00C02082A56D0022B52
:1025800017D03B4B00221A66FEF7FAFF0446374B82
:102590001B6813F0007F47D0FEF7F2FF001B0228F4
:1025A000F5D9032059E0314AD36923F08053D36130
:1025B000DCE72F4B00221A66FEF7E2FF05462B4BA5
:1025C0001B6813F0007F06D0FEF7DAFF401B0228DD
:1025D000F5D9032041E0236AB3F5803F1AD023499F
:1025E0004B6823F47413226A606A024313434B60FE
:1025F0001F4B01221A66FEF7C3FF04461B4B1B68E4
:1026000013F0007F0ED1FEF7BBFF001B0228F5D9A7
:10261000032022E0154A536823F40033A1680B43DA
:102620005360DCE7002018E0002016E0012B16D0F4
:102630000E4B5B6803F48031226A914211D103F49E
:102640007013626A93420ED1002006E001207047A9
:10265000012002E0012000E0002002B070BD012056
:10266000FBE70120F9E70120F7E700BF0010024077
:10267000000042420F4B5B6803F00C02082A01D0B5
:102680000D487047C3F383420C49885C13F4803FC4
:102690000BD0084B5B68C3F34043094AD35C064A3E
:1026A00002FB00F0B0FBF3F07047064B03FB00F0B9
:1026B000704700BF0010024000127A00804C0008F2
:1026C0007C4C000800093D00002800F0A08070B597
:1026D0000D460446524B1B6803F007038B420BD296
:1026E0004F4A136823F007030B431360136803F08A
:1026F00007038B4240F08D80236813F0020F17D040
:1027000013F0040F04D0474A536843F4E063536066
:10271000236813F0080F04D0424A536843F460530F
:102720005360404A536823F0F003A1680B435360A1
:10273000236813F0010F31D06368012B20D0022BE6
:1027400025D0384A126812F0020F64D035494A6821
:1027500022F0030213434B60FEF712FF0646314B93
:102760005B6803F00C036268B3EB820F16D0FEF7D0
:1027700007FF801B41F288339842F0D9032045E0DF
:10278000284A126812F4003FE0D101203EE0254AB9
:10279000126812F0007FD9D1012037E0204B1B686E
:1027A00003F00703AB420AD91D4A136823F007035D
:1027B0002B431360136803F00703AB422DD123684A
:1027C00013F0040F06D0174A536823F4E063E1685E
:1027D0000B435360236813F0080F07D0114A536866
:1027E00023F46053216943EAC1035360FFF742FFBA
:1027F0000C4B5B68C3F303130B4AD35CD8400B4B01
:1028000018600B4B186800F0B3F9002070BD012070
:1028100070470120FAE70120F8E70120F6E700BF42
:102820000020024000100240984C000810000020D8
:102830000C000020014B1868704700BF10000020FA
:1028400008B5FFF7F7FF044B5B68C3F30223034AA5
:10285000D35CD84008BD00BF00100240904C000877
:1028600008B5FFF7E7FF044B5B68C3F3C223034AD5
:10287000D35CD84008BD00BF00100240904C000857
:102880000F2303600B4B5A6802F0030242605A6840
:1028900002F0F00282605A6802F4E062C2605B6893
:1028A000DB0803F4E0630361034B1B6803F00703D9
:1028B0000B6070470010024000200240704700008B
:1028C00090F83D30DBB2012B27D1022380F83D3058
:1028D0000268D36843F00103D3600368114A93424E
:1028E00010D0B3F1804F0DD0A2F59432934209D0AD
:1028F00002F58062934205D01A6842F001021A6024
:10290000002070479A6802F00702062A07D01A686A
:1029100042F001021A600020704701207047002039
:10292000704700BF002C01407047704770477047E8
:1029300070B504460368DE681D6915F0020F10D0FB
:1029400016F0020F0DD06FF002021A610123037717
:1029500003689B6913F0030F5ED0FFF7E6FF0023C7
:10296000237715F0040F12D016F0040F0FD0236850
:102970006FF004021A610223237723689B6913F422
:10298000407F4FD02046FFF7D0FF0023237715F07C
:10299000080F12D016F0080F0FD023686FF008024E
:1029A0001A61042323772368DB6913F0030F40D0F7
:1029B0002046FFF7BAFF0023237715F0100F12D03F
:1029C00016F0100F0FD023686FF010021A61082361
:1029D00023772368DB6913F4407F31D02046FFF76B
:1029E000A4FF0023237715F0010F02D016F0010F8A
:1029F0002DD115F0800F02D016F0800F2FD115F0D9
:102A0000400F02D016F0400F31D115F0200F02D048
:102A100016F0200F33D170BDFFF786FF2046FFF779
:102A200085FF9CE72046FFF77FFF2046FFF77EFFEC
:102A3000ABE72046FFF778FF2046FFF777FFBAE7BE
:102A40002046FFF771FF2046FFF770FFC9E72368B4
:102A50006FF001021A612046FEF762FAC9E72368A7
:102A60006FF080021A61204600F081F8C7E7236802
:102A70006FF040021A612046FFF759FFC5E723684F
:102A80006FF020021A61204600F070F8C3E70000E2
:102A900003681F4A90420AD0B0F1804F07D0A2F5D8
:102AA0009432904203D002F58062904203D123F029
:102AB00070034A681343164A90420AD0B0F1804F1F
:102AC00007D0A2F59432904203D002F58062904282
:102AD00003D123F44073CA68134323F080034A6987
:102AE000134303608B68C3620B688362084B984290
:102AF0000AD001234361036913F0010F03D0036976
:102B000023F00103036170470B690363F1E700BF22
:102B1000002C014040B310B5044690F83D30F3B1AD
:102B2000022384F83D30214651F8040BFFF7B0FF33
:102B3000012384F8463084F83E3084F83F3084F82E
:102B4000403084F8413084F8423084F8433084F8CF
:102B5000443084F8453084F83D30002010BD80F8C2
:102B60003C30FFF7ABFEDBE7012070477047704752
:102B700030B589B004461E4B9A6942F400629A61EE
:102B80009B6903F400630193019B02A903A8FFF76B
:102B900077FEFFF765FE174AA2FB00239B0C013B63
:102BA0001548164A026040F2E732C26043600023D3
:102BB000036183608361FFF7ADFF054610B12846CE
:102BC00009B030BD0C48FFF77BFE05460028F6D162
:102BD0001920FEF731FD0F2C01D90125EFE7002266
:102BE00021461920FEF718FD054B1C60E7E700BFE2
:102BF0000010024083DE1B43FC300020002C01400B
:102C00000C00002010B504460268136923F44053F9
:102C1000C1680B43136183680269134342691A4315
:102C20000168CB6823F4B05323F00C031343CB604B
:102C30000268536923F4407381690B43536102684E
:102C4000134B9A4220D0FFF7FBFD024602EB8202B3
:102C500002EB820263689B00B2FBF3F20D48A0FB1B
:102C600002314909642303FB11231B013233A0FB0A
:102C700003035B0903F0F00202EB011203F00F0300
:102C8000216813448B6010BDFFF7EAFD0246DDE7C3
:102C9000003801401F85EB5160B310B5044690F831
:102CA000413013B3242384F841302268D36823F4DD
:102CB0000053D3602046FFF7A5FF2268136923F471
:102CC000904313612268536923F02A0353612268F9
:102CD000D36843F40053D36000206064202384F859
:102CE000413084F84230606310BD80F84030FFF717
:102CF00067FAD7E701207047FEE7FEE7FEE7FEE749
:102D0000FEE7704708B50248FFF712FE08BD00BF96
:102D1000FC30002070470000084B1B681B6823B97B
:102D2000074B4FF0FF321A607047044B1B68DB689B
:102D3000DB685A68024B1A60704700BFB43100204C
:102D40004C3100202DE9F04707469846089DDDF8F4
:102D500024900A9C266B02F18042013A06EB82061F
:102D600026F00706C1B308464FF0000CBCF10F0F68
:102D700009D810F80C2004EB0C0383F8342012B1AE
:102D80000CF1010CF2E7002384F84330062D00D942
:102D90000625E56265644FF0000AC4F848A0201DCE
:102DA000FEF75DF804F11800FEF759F82461C5F14B
:102DB0000705A5616462C4F84CA084F850A042469F
:102DC00039463046FEF7BAF92060B9F1000F01D05C
:102DD000C9F80040BDE8F087002384F83430D5E717
:102DE00038B5002407E004EB840293000E48184431
:102DF000FEF72AF80134062CF5D90C4D2846FEF7CB
:102E000023F80B4C2046FEF71FF80A48FEF71CF883
:102E10000948FEF719F80948FEF716F8084B1D6037
:102E2000084B1C6038BD00BFE0310020CC310020D1
:102E3000B83100209C310020883100207031002002
:102E4000B4310020B031002010B50446FEF79AF9E5
:102E5000214A136801331360204B1B685BB1204B80
:102E60001B686BB91D4B1B68DA6AE36A9A4207D884
:102E70001A4B1C6004E0194B1C601368012B28D00E
:102E8000184A136801331360E06A01238340164A2D
:102E900011680B43136000EB8000211D134B03EB03
:102EA0008000FDF7DFFFFEF78FF90D4B1B687BB14C
:102EB0000A4B1B68DA6AE36A9A4209D24FF0E023B0
:102EC0004FF08052C3F8042DBFF34F8FBFF36F8FC5
:102ED00010BDFFF785FFD3E76C3100206C32002076
:102EE000603100205031002064310020E0310020AA
:102EF00010B5044690F8513063B1012B11D0022B6C
:102F00000ED04FF0500383F31188BFF36F8FBFF3E0
:102F10004F8FFEE7006BFDF759FF2046FDF756FF88
:102F200010BDFDF753FFFBE70F4B1B68D3B110B586
:102F3000FEF728F90D4BDB68DC68201DFDF7B6FFB6
:102F40000B4A1368013B1360074A1368013B136087
:102F5000FEF73AF92046FFF7CBFF034B1B68002B27
:102F6000E6D110BD704700BF8431002088310020B9
:102F70006C31002008B5FFF7D7FF074B1B68012B0A
:102F8000F9D94FF0E0234FF08052C3F8042DBFF37E
:102F90004F8FBFF36F8FEEE7E031002070B504462E
:102FA0000D461D4B1E681D4B18680430FDF77EFF53
:102FB00048B91A4B1B68DB6A01229A4018490B6812
:102FC00023EA02030B60B4F1FF3F0DD03444134BEE
:102FD0001B685C60A64210D9124B18680F4B196829
:102FE0000431FDF74AFF70BD002DEFD00B4B19687F
:102FF00004310D48FDF736FFF5E70C4B1868074B19
:1030000019680431FDF739FF094B1B68A342EAD95F
:10301000074B1C60E7E700BF683100206C320020DE
:1030200064310020B031002070310020B431002024
:103030004C31002030B587B00B9C7CB10C9DB5B1F4
:1030400054250495049D542D1AD04FF0500383F35A
:103050001188BFF36F8FBFF34F8FFEE74FF0500320
:1030600083F31188BFF36F8FBFF34F8FFEE74FF0ED
:10307000500383F31188BFF36F8FBFF34F8FFEE7C9
:10308000049D0C9D2C63022485F851400024039478
:10309000029505AC01940A9C0094FFF753FE0C982E
:1030A000FFF7D2FE059807B030BD2DE9F04385B09B
:1030B0000746884614461E469000FDF705FE08B3F5
:1030C00081465420FDF700FE0546A8B1C0F83090B7
:1030D000002380F85130039302900D9B01930C9BC9
:1030E00000933346224641463846FFF72BFE2846DA
:1030F000FFF7AAFE012007E04846FDF767FE4FF004
:10310000FF3001E04FF0FF3005B0BDE8F083000074
:1031100010B588B000240594069407AA06A905A84E
:10312000FDF764FD059B0293069B019300942346E3
:10313000079A0E490E48FFF77DFF0E4B186090B1BD
:103140004FF0500383F31188BFF36F8FBFF34F8F9E
:10315000094B4FF0FF321A60084B01221A60084BEE
:103160001C60FEF799F808B010BD00BFA84C00081D
:10317000752F0008483100204C31002060310020BC
:1031800068310020024A136801331360704700BFA2
:1031900044310020F8B53A4B1B68002B69D1394BFC
:1031A0001D6801351D60C5B9374B1B681B6843B1ED
:1031B0004FF0500383F31188BFF36F8FBFF34F8F2E
:1031C000FEE7314A1168314B186810601960304AC7
:1031D000136801331360FFF79FFD2E4B1B68AB4252
:1031E0003DD900272C4B1B68DB6A03EB83039A0055
:1031F0002A4B9B58012B00D90127294B1B68002B18
:103200003CD001273AE001271F4B1B681B6843B3E2
:103210001D4B1B68DB68DC6863689D4226D3261D56
:103220003046FDF743FEA36A1BB104F11800FDF719
:103230003DFEE36A01229A401A49086802430A6087
:1032400003EB83039A00314614481044FDF70AFE4D
:10325000E26A114B1B68DB6A9A42D4D2D4E700279A
:10326000D2E70C4B4FF0FF321A60BBE7094A1360FC
:10327000B8E70D4A13680133136000273846F8BDDC
:103280004431002068310020B4310020B0310020EA
:10329000543100204C3100206C320020E0310020FD
:1032A00058310020643100205C31002038B5354BA6
:1032B0001B6843B94FF0500383F31188BFF36F8F3E
:1032C000BFF34F8FFEE7FDF75DFF2E4B1A68013A03
:1032D0001A601B68002B4FD12B4B1B680BB90024C5
:1032E0004BE00024294B1B681BB3284BDB68DC68D0
:1032F00004F11800FDF7DAFD251D2846FDF7D6FD7F
:10330000E06A01238340224A11680B43136000EBFB
:10331000800029461F4B03EB8000FDF7A3FDE26A06
:103320001D4B1B68DB6A9A42DCD31C4B01221A60DE
:10333000D8E70CB1FFF7F0FC194B1C6884B9174BA8
:103340001C68D4B14FF0E0234FF08052C3F8042D35
:10335000BFF34F8FBFF36F8F01240EE0013C07D006
:10336000FFF718FF0028F9D00C4B01221A60F5E78F
:103370000B4B00221A60E2E70024FDF725FF2046F0
:1033800038BD00BF443100206C3100209C3100204A
:1033900064310020E03100206C32002058310020E0
:1033A0005C31002010B5A8B10446104B1B6843B136
:1033B0004FF0500383F31188BFF36F8FBFF34F8F2C
:1033C000FEE7FFF7DFFE00212046FFF7E7FDFFF7EE
:1033D0006DFF48B94FF0E0234FF08052C3F8042D41
:1033E000BFF34F8FBFF36F8F10BD00BF443100207C
:1033F000204B1B681BB1204B01221A6070471E4BEB
:1034000000221A601D4B1B68B3FA83F3DBB2C3F1D1
:103410001F0303EB83018A0019498A5842B94FF010
:10342000500383F31188BFF36F8FBFF34F8FFEE715
:10343000134803EB83018A000244516849685160D4
:1034400003EB830C4FEA8C0208320244914209D00C
:1034500003EB83039A000A4B13445B68DA68094B59
:103460001A607047486862469100054A0A445060F5
:10347000EEE700BF443100205831002064310020C5
:10348000E03100206C3200202DE9F04104460D4669
:1034900016461420FDF718FCE061002837D02046BE
:1034A000FDF7D2FD0746E36910221A81E369C200E5
:1034B000DA80E36903221A71E3691D80E3695E80A3
:1034C000D4F81C800001FDF7FFFBC8F80C00E3698D
:1034D000D96819B13A462046FDF7D0FD0820FDF71E
:1034E000F3FB206288B10571236A5E71236A14229E
:1034F0001A70236A9D70236A4022DA70226A0023C0
:10350000D371226A9371226A5370BDE8F0810E274D
:10351000DDE770B50646C469002500E064696CB15A
:10352000237E002BFAD12A4604212046FFF7ACFF68
:10353000E06900F05FF80544EDB2EFE7F36903E0FE
:10354000D969D2690A615B691BB15A69002AF7D14E
:10355000F9E770BD10B50C4B1B68DC6900E06469CD
:103560008CB1206A0028FAD0237E002BF7D10121EC
:10357000FDF7FEF9226AE36992791A80226AE3690B
:10358000D2795A80EBE710BD1400002008B50C4832
:10359000FFF7BFFF0B4B1868FDF7AEFFFFF7DAFF31
:1035A000074BDB69D86900F001F9064B1868FDF795
:1035B00071FF00F03FF91420FDF707F9EEE700BFB7
:1035C000180000201400002070B102887F2A0DD856
:1035D000C08868B11318802B04DDD2B2C2F180021A
:1035E000D0B27047C0B270470020704700207047CB
:1035F0000020704770B142883F2A0DD8008968B119
:103600001318402B04DDD2B2C2F14002D0B2704791
:10361000C0B27047002070470020704700207047FC
:10362000F0B593B004460E4617461D4640220021D1
:1036300002A800F09AF9002300930193002C4BD0CC
:103640006088C3B208E003F148020DEB02010122D9
:1036500001F8402C1344DBB239188B42F3DB4FF0F6
:10366000000C03E00CF1010C5FFA8CFCBCF1070FBD
:1036700015D80022072AF5D80CF148030DEB0300FA
:1036800010F8483C02EBCC014831694411F8401C69
:1036900091400B4300F8483C0132D2B2EAE70020E7
:1036A00016E0B4F800C0844405EBCC0C1CF8021002
:1036B00002F148036B4413F8483CDB435BB20B4018
:1036C0000CF802300132D2B2072AEAD90130C0B276
:1036D000B04201D20022F7E713B0F0BD2DE9F0436C
:1036E00093B005468946174698464022002102A815
:1036F00000F03BF9002300930193002D53D02E7866
:103700001C4642E0E968E2088A5C04F007010A41CD
:1037100002F0010203F14801694401F8402C013430
:10372000A4B20133DBB26A883A449342EADB002256
:1037300024E002F148030DEB030111F848EC0CEB17
:10374000C20348336B4413F8403C03FA0CF34EEACF
:10375000030E01F848EC0CF1010C5FFA8CFCBCF193
:10376000070FE6D908EBC6018B5C02F148006844FC
:1037700010F8480C03438B540132D2B2072A02D806
:103780004FF0000CEBE70136F6B22B884B449E421B
:1037900009DA4022002102A800F0E7F80023009394
:1037A0000193AB78BFE713B0BDE8F08330B5ADF25D
:1037B000044D04464FF480620021684600F0D5F8BD
:1037C0000DE02046FFF700FF05462046FFF712FFF9
:1037D00002466B4629462046FFF780FF2469002CED
:1037E000EFD14FF480626946024800F0EBF80DF229
:1037F000044D30BD70320020F8B5044615E0204677
:10380000FFF7E2FE05462046FFF7F4FE0646084FA6
:103810003B46024629462046FFF702FF3B4632461A
:1038200029462046FFF75AFF2469002CE7D1F8BD4E
:103830007032002010B5A0B080220021684600F050
:1038400094F8002417E0114A02EBC302115D03F162
:1038500080026A4402F8801C0133DBB213F0800F4F
:10386000F1D000212046FDF7A2F980216846FDF73E
:103870005DF90134E4B2072C06D8802200216846A5
:1038800000F073F80023E9E720B010BD703200208B
:103890002DE9F8430446FFF797FE80462046FFF7E0
:1038A000A9FE0546E068E288238903FB02F2002AAC
:1038B00008DBD210002100F058F864B394F800E05F
:1038C000002221E00732F4E7E668D708F05D4FEA0E
:1038D000D309124901EBCC0111F8091003F00709D3
:1038E00041FA09F102F0070901FA09F10143F15522
:1038F000013292B20133DBB2618829448B42E3DBAF
:103900000EF1010E5FFA8EFEF446238843449E4575
:1039100001DAA378F0E7BDE8F88300BF7032002039
:10392000FFF7F8F90B480C490C4A002302E0D45881
:10393000C4500433C4188C42F9D3094A094C0023FB
:1039400001E013600432A242FBD300F017F8FDF748
:103950005DFB704700000020AC010020C84C00084F
:10396000AC010020A8370020FEE703460244934242
:1039700000D1704703F8011BF9E7000070B500267D
:103980000C4D0D4C641BA410A64209D100F06AFD39
:1039900000260A4D0A4C641BA410A64205D170BD36
:1039A00055F8043B98470136EEE755F8043B984735
:1039B0000136F2E7C04C0008C04C0008C04C0008BB
:1039C000C44C00080A44914200F1FF3300D1704713
:1039D00010B511F8014B914203F8014FF9D110BD18
:1039E00008B5C0F3C7537F3B162B014615DC002BEF
:1039F00002460BDB0B481841084205D04FF480010A
:103A00001941114421EA0001084608BD013300F0C4
:103A10000041F9D141F07E51F6E7802BF4D1FCF75B
:103A200085FB08BDFFFF7F0070B50C46064600F021
:103A300057F8214605462046FCF746FE58B9304661
:103A40000021FCF70FFEA0B120460021FCF70AFE82
:103A500018B14FF07E55284670BD204600F038F86A
:103A60000028F8D020460021FCF706FE0028F2D0FE
:103A700023E0284600F02CF880B128460021FCF70E
:103A8000F1FD0028E7D0304600F022F80028E2D00F
:103A9000204600F01DF80028DDD00EE0304600F092
:103AA00017F80028E9D0204600F012F80028E4D0EA
:103AB00029462846FCF708FE20B900F0CDFC222359
:103AC0000360C8E700F0C8FC21230360C3E700BF20
:103AD00020F00040B0F1FF4FACBF00200120704744
:103AE0002DE9F04F31F0004A0C468046814687B000
:103AF0000DD180F480094FEA490919F5000F18D952
:103B000021464046FCF712FB07B0BDE8F08F20F0DD
:103B1000004BBBF1FF4F0D4602D8BAF1FF4F0DD954
:103B2000B9F17E5FECD185F480056D0015F5000FCD
:103B3000E6D84FF07E5007B0BDE8F08F00285B4616
:103B400014DBBAF1FF4F00F03981BAF17E5F00F06B
:103B50006681B1F1804F00F08681B1F17C5F40F069
:103B60007A8107B0BDE8F04F00F004BCBAF1974F7E
:103B700080F02D81BAF17E5F80F05C81B1F1804FE1
:103B800000F07181B1F17C5F40F06581CDF800B04B
:103B900000F0ECFBBBF1FF4F009BB5D00026BBF162
:103BA000000F00F02F81BBF17E5F00F020814FEA13
:103BB000D977013F56EA070200F05A81BAF19A4FCD
:103BC00040F27C81AE4B9B4540F2C882AD4B9B4599
:103BD00000F2D0824FF07E51FCF7A6FAAA49804647
:103BE000FCF7ACFBA94981464046FCF7A7FB4FF028
:103BF0007A5182464046FCF7A1FB0146A448FCF7F7
:103C000093FA4146FCF79AFB01464FF07C50FCF7D3
:103C10008BFA414683464046FCF790FB01465846E6
:103C2000FCF78CFB9B49FCF789FB01465046FCF7EF
:103C30007BFA804648464146FCF778FA20F47F6BD1
:103C40002BF00F0B49465846FCF76EFA01464046EA
:103C5000FCF76AFA013E6FF30B053E4329468046A6
:103C6000204614BF4FF07E568B4EFCF75DFA594646
:103C7000FCF764FB0346214640461C46FCF75EFB0E
:103C800001462046FCF752FA294607465846FCF7FB
:103C900055FB044638462146FCF748FA00280546FD
:103CA000824620F0004240F32B82B2F1864F00F2B0
:103CB000CB8200F0AA82B2F17C5F00F28D824FF0DD
:103CC000000845466FF30B0A74495046FCF736FB73
:103CD000214681465046FCF727FA01463846FCF754
:103CE00023FA6F49FCF72AFB6E4904465046FCF75D
:103CF00025FB01462046FCF719FA07464846394697
:103D0000FCF714FA49460446FCF70EFA0146384619
:103D1000FCF70AFA214681462046FCF70FFB0746CE
:103D20006149FCF70BFB6149FCF7FEF93946FCF7EA
:103D300005FB5F49FCF7FAF93946FCF7FFFA5D49E4
:103D4000FCF7F2F93946FCF7F9FA5B49FCF7EEF9B2
:103D50003946FCF7F3FA01462046FCF7E5F9074639
:103D600020463946FCF7EAFA03464FF080413846D0
:103D70001F46FCF7D9F901463846FCF793FB494644
:103D800007462046FCF7DAFA4946FCF7CFF9014628
:103D90003846FCF7C9F92146FCF7C6F901464FF051
:103DA0007E50FCF7C1F903464344B3F5000FC0F25F
:103DB000DD8118463146FCF7C1FAA5E6BBF17E5F0E
:103DC0003FF4B7AE31D9002D2DDB20469CE6BAF189
:103DD000FF4FF3D002264046009300F0C7FABBF134
:103DE000FF4F04D0009BBBF1000F7FF4DCAE002D31
:103DF00004DA01464FF07E50FCF754FBB9F1000F96
:103E0000BFF682AEABF17E5B5BEA060B40F07281DF
:103E10000146FCF789F90146FCF744FB74E6002DE6
:103E20001BDB404670E600206EE6002DFBDA04F155
:103E3000004069E64FEAEA52C2F196024AFA02F1FC
:103E400001FA02F2524500F04881BAF17E5FE6D0F5
:103E5000B4F1804F07D00026BDE741464FF07E50B9
:103E6000FCF720FB50E641464046FCF767FA4BE67C
:103E700041464046FCF758F90146FCF713FB43E680
:103E8000F3FF7F3F0700803F00AAB83F70A5EC36E4
:103E9000ABAAAA3E3BAAB83F000080BF0072313FE8
:103EA0001872313F8CBEBF354CBB31330EEADD3565
:103EB00055B38A38610B363BABAA2A3E19F0FF4F47
:103EC00040F04A814FF09741FCF738FA6FF0170144
:103ED0000346DA157F3A5018AF49C3F316028A42F7
:103EE000039042F07E5807DDAC498A4240F34A8194
:103EF00001300390A8F50008002300224FF07E5BFC
:103F000002930092059359464046FCF70DF9594635
:103F100081464046FCF70AF901464FF07E50FCF717
:103F2000C1FA0246484611460492FCF707FA4FEAE6
:103F30006803009A43F0005303F5802313441946A5
:103F4000019303466FF30B0300901846C246984650
:103F5000FCF7F4F901464846FCF7E6F8019B814678
:103F600059461846FCF7E0F801465046FCF7DCF8E5
:103F70004146FCF7E3F901464846FCF7D5F8049AB8
:103F80001146FCF7DBF9DDF800B0019059465846C0
:103F9000FCF7D4F981468249FCF7D0F98149FCF756
:103FA000C5F84946FCF7CAF97F49FCF7BFF849460E
:103FB000FCF7C4F97D49FCF7B9F84946FCF7BEF9AE
:103FC0007B49FCF7B3F84946FCF7B8F97949FCF7A7
:103FD000ADF8494682464846FCF7B0F901465046DE
:103FE000FCF7ACF9814641465846FCF79FF8019929
:103FF000FCF7A4F94946FCF799F84146814640464A
:10400000FCF79CF96C498246FCF790F84946FCF7AE
:104010008DF80346404623F47F6828F00F08414698
:10402000FCF78CF9644983464046FCF77DF851461D
:10403000FCF77AF801464846FCF776F80099FCF759
:104040007DF90346414601989846FCF777F9014609
:104050004046FCF76BF8824658465146FCF766F836
:1040600020F47F6828F00F0840465449FCF766F9B1
:10407000594681464046FCF757F801465046FCF742
:1040800053F84F49FCF75AF903464E4940469846C3
:10409000FCF754F901464046FCF748F80599FCF74F
:1040A00045F880460398FCF7F5F8824641464846B5
:1040B000FCF73CF80299FCF739F85146FCF736F862
:1040C00020F47F6B2BF00F0B51465846FCF72CF871
:1040D0000299FCF729F84946B6E5BAF17E5F3FF44C
:1040E0009EAEB4F1804F3FF4BEAE01F00101C1F1CC
:1040F000020670E6012E7FF407AD00F1004003E5F3
:10410000314B9A4200F2A8807FF4D5AD2146FCF7EE
:104110000BF83946FCF7C4FA002840F09D8005F5FD
:104120000043C3F3C75229497F3A11411940C3F3F1
:104130001603C2F1170243F4000343FA02F56D427D
:104140002046FBF7F1FF044638462146FBF7EEFF19
:104150004FEAC5588246B5E50021BAE6002D0BDBD3
:10416000002007B0BDE8F04F00F0A0B8294600F0ED
:10417000A5F81FE6002DF3DD002007B0BDE8F04FE5
:1041800000F098B84FF400130093114B4FF07F5B91
:104190000293104B0593B6E671C41C00D6B35D00C4
:1041A00042F1533E55326C3E05A38B3EABAAAA3E6C
:1041B000B76DDB3E9A99193F000040400038763FCA
:1041C0004F38763FA0C39D3600001643000080FFA5
:1041D00000C0153FDCCFD1354FF40003D2157E3A35
:1041E000134153442049C3F3C7527F3AC3F3160522
:1041F000114145F40005C2F11702BAF1000F01EABE
:10420000030145FA02F59BDA99E718493846FBF7AE
:104210008DFF0346214628461D46FBF785FF0146D4
:104220002846FCF747FA78B90AF50043DA150E4933
:104230007F3A11411940C3F31603C2F1170243F448
:10424000000343FA02F57BE730460021FCF714FA3D
:10425000003818BF012090E730460021FCF70CFA27
:10426000003818BF01207CE7000080FF3CAA3833EB
:1042700038B505460C4600F0EFF8034628461C60AA
:1042800038BD00BF08B540B101F10040FCF756F859
:10429000BDE808402221FFF7EBBF0846FCF74EF8C7
:1042A000BDE808402221FFF7E3BF00BF4FF0805177
:1042B000FFF7E8BF4FF0E041FFF7E4BF10B50C4651
:1042C00030F0004103461DD0B1F1FF4F1BD210F07A
:1042D000FF4F02461BD14FF09841FCF72FF8204AC0
:1042E000034694422CDBC0F3C75102464CF25030D7
:1042F0008442A1F1190110DD18461A4961F31E002C
:10430000FCF71CF810BD0146FBF710FF10BD4CF286
:10431000503084424FEAD151EEDC2144FE29EBDCDF
:10432000002911DC11F1160F13DB01F1190022F045
:10433000FF424FF04C5142EAC050FBF7FFFF10BD67
:104340000949FBF7FBFF10BD22F0FF4242EAC150D2
:1043500010BD1846044961F31E00FBF7EFFF10BDC6
:10436000B03CFFFFCAF249716042A20D20F000404C
:10437000704700BF20F00042B2F1FF4F2DE9F0413D
:10438000044651D2002A45D00028034654DB10F0E1
:10439000FF4241D0C1150024C3F31602A1F17F05ED
:1043A000CB074FF0190E4FF0807C214642F40002FB
:1043B00058BF52006D10520001EB0C039342CFBF67
:1043C000134603EB0C016444D31ABEF1010E4FEA0D
:1043D00043024FEA5C0CEFD1BBB11D4E1D4F30685C
:1043E0003968FBF7A1FED6F8008001464046FCF78D
:1043F0004DF950B130683968FBF798FE36680146D0
:104400003046FCF739F9F8B10234601000F17C5005
:1044100000EBC550BDE8F0815B001802114602F1C7
:104420000102F9D54942B6E70146FBF787FF21466D
:10443000FBF77CFEBDE8F0810146FBF775FE014607
:10444000FCF730F8BDE8F081013424F00104DCE72A
:10445000B44C0008B04C0008014B1868704700BF0E
:104460005C010020F8B500BFF8BC08BC9E46704750
:0C447000F8B500BFF8BC08BC9E467047C1
:10447C000000000000000000000000000000000030
:10448C0000FE020202020202003F20202020202017
:10449C000000000000000000000000000000000010
:1044AC0000FE020202020202003F202020202020F7
:1044BC0000FE020202020202003F202020202020E7
:1044CC0000FE020202020202003F202020202020D7
:1044DC0000FE020202020202003F202020202020C7
:1044EC0000FE020202020202003F202020202020B7
:1044FC0000FE020202020202003F202020202020A7
:10450C00000000000000000000000000000000009F
:10451C00000000000000000000000000000000008F
:10452C00000000000000000000000000000000007F
:10453C0000FE020202020202003F20202020202066
:10454C0000FE020202020202003F20202020202056
:10455C0000FE020202020202003F20202020202046
:10456C0000FE020202020202003F20202020202036
:10457C0000FE020202020202003F20202020202026
:10458C0000FE020202020202003F20202020202016
:10459C0000FE020202020202003F20202020202006
:1045AC0000FE020202020202003F202020202020F6
:1045BC0000FE020202020202003F202020202020E6
:1045CC0000FE020202020202003F202020202020D6
:1045DC0000FE020202020202003F202020202020C6
:1045EC0000FE020202020202003F202020202020B6
:1045FC0000FE020202020202003F202020202020A6
:10460C0000FE020202020202003F20202020202095
:10461C0000FE020202020202003F20202020202085
:10462C0000FE020202020202003F20202020202075
:10463C00000000000000000000000000000000006E
:10464C00000000000000000000000000000000005E
:10465C00000000000000000000000000000000004E
:10466C00000000000000000000000000000000003E
:10467C00000000000000000000000000000000002E
:10468C00000000F8000000000000003300000000F3
:10469C0000100C02100C02000000000000000000D2
:1046AC000040C07840C0780000043F04043F040080
:1046BC0000708888FC08300000182020FF211E00A4
:1046CC00F008F0806018000000310C031E211E0061
:1046DC0000F00888700000001E21232C19272110DF
:1046EC0000120E000000000000000000000000009E
:1046FC00000000E018040200000000071820400031
:10470C0000020418E0000000004020180700000020
:10471C00404080F0804040000202010F0102020084
:10472C0000000000E0000000000101010F01010188
:10473C00000000000000000000907000000000006D
:10474C000000000000000000000101010101010057
:10475C0000000000000000000030300000000000ED
:10476C0000000000C03804000060180700000000C2
:10477C0000E010080810E000000F102020100F00BF
:10478C0000001010F8000000000020203F20200046
:10479C00007008080808F00000302824222130009E
:1047AC0000300808088870000018202121221C0005
:1047BC000000804030F8000000060524243F24242B
:1047CC0000F88888880808000019202020110E00A5
:1047DC0000E0108888900000000F112020201F009E
:1047EC0000180808886818000000003E010000004E
:1047FC000070880808887000001C222121221C00EF
:10480C0000F008080810E0000001122222110F002D
:10481C00000000C0C00000000000003030000000AC
:10482C000000008000000000000000E0000000001C
:10483C000000804020100800000102040810200035
:10484C0000404040404040000002020202020200D0
:10485C000008102040800000002010080402010015
:10486C000070480808887000000000303700000015
:10487C00C030C828E810E000071827282F28170098
:10488C000000C038E0000000203C23020227382042
:10489C0008F8888888700000203F202020110E0026
:1048AC00C03008080808380007182020201008001D
:1048BC0008F808080810E000203F202020100F0006
:1048CC0008F88888E8081000203F202023201800D2
:1048DC0008F88888E8081000203F2000030000003A
:1048EC00C03008080838000007182020221E0200DB
:1048FC0008F808000008F808203F210101213F209A
:10490C00000808F8080800000020203F20200000C4
:10491C0000000808F8080800C08080807F000000B4
:10492C0008F888C028180800203F200126382000ED
:10493C0008F8080000000000203F20202020300054
:10494C0008F8F800F8F80800203F013E013F20006D
:10495C0008F830C00008F808203F200007183F0076
:10496C00E01008080810E0000F10202020100F00A5
:10497C0008F808080808F000203F21010101000098
:10498C00E01008080810E0000F10282830504F00E5
:10499C0008F8888888887000203F2000030C30209D
:1049AC0000708808080838000038202121221C00DB
:1049BC00180808F8080818000000203F2000000024
:1049CC0008F808000008F808001F202020201F000D
:1049DC000878880000C83808000007380E0100006D
:1049EC0008F800F800F8080000033E013E03000040
:1049FC00081868808068180820302C03032C30209D
:104A0C000838C800C83808000000203F200000000B
:104A1C0010080808C8380800203826212020180063
:104A2C00000000FE020202000000007F4040400037
:104A3C00000438C000000000000000010638C0006F
:104A4C0000020202FE000000004040407F00000017
:104A5C00000004020204000000000000000000003E
:104A6C00000000000000000080808080808080803A
:104A7C000002020400000000000000000000000022
:104A8C00000080808000000000192424123F2000C8
:104A9C0010F0008080000000003F112020110E005B
:104AAC000000008080800000000E112020201100EA
:104ABC00000080808090F000001F202020103F20FC
:104ACC000000808080800000001F24242424170014
:104ADC00008080E0909020000020203F20200000EB
:104AEC000000808080808000006B94949493600020
:104AFC0010F0008080800000203F210000203F202B
:104B0C0000809898000000000020203F202000002A
:104B1C00000000809898000000C08080807F00001A
:104B2C0010F0000080808000203F240629302000F7
:104B3C00001010F8000000000020203F2020000092
:104B4C008080808080808000203F20003F20003FBC
:104B5C008080008080800000203F210000203F20CA
:104B6C000000808080800000001F202020201F007B
:104B7C00808000808000000080FF912020110E00BA
:104B8C000000008080008000000E11202091FF802A
:104B9C00808080008080800020203F212000010048
:104BAC00000080808080800000332424242419009D
:104BBC00008080E0808000000000001F202010009A
:104BCC008080000000808000001F202020103F20EB
:104BDC00808080008080800000030C300C0300007B
:104BEC008080008080008080010E300C0738060128
:104BFC0000808080008080000020310E2E3120004B
:104C0C0080808000008080800081867818060100FA
:104C1C0000808080808080000021302C2221300098
:104C2C000000000000FC020200000000013E4040B9
:104C3C0000000000FF00000000000000FF0000006A
:104C4C000202FC000000000040403E010000000099
:104C5C00000201020204020000000000000000003B
:104C6C000000000000000000000000000000000038
:104C7C000102000002030405060708090A0B0C0DCB
:104C8C000E0F1010000000000102030400000000D1
:104C9C0000000000010203040607080949444C45C2
:0C4CAC00000000006042A20D0000803FEC
:084CB80058B4FF7F0100000069
:044CC0009D07000844
:044CC4007507000868
:104CC80002000000AAAAAAAA010000001000000021
:104CD80000127A0018000020706167654E6F6465E5
:104CE800486561640000000000000000000000004A
:104CF800000000003C0000203C0000204E6F64656E
:104D08003131000000000000000000000000000039
:104D18006C000020000000000000000000000000FF
:104D28000000000000000000000000004E6F6465F5
:104D38003232000000000000000000000000000007
:104D48009C0000200000000000000000000000009F
:104D58000000000000000000000000004E6F6465C5
:104D680033333300000000000000000000000000A2
:104D7800CC0000200000000000000000000000003F
:104D88000000000000000000000000004E6F646595
:104D9800333232333131313300000000000000007B
:104DA800FC000020000000000000000000000000DF
:104DB8000000000000000000000000004E6F646565
:104DC8003333330000000000000000000000000042
:104DD8002C0100200000000000000000000000007E
:104DE8000000000000000000000000004E6F646535
:104DF80034343432323232343400000000000000DF
:104E0800000000000000000000000000000000009A
:104E18000000000000000000000000006001002009
:104E28000000000070360020D836002040370020EF
:104E3800000000000000000000000000000000006A
:104E4800000000000000000000000000000000005A
:104E5800000000000000000000000000000000004A
:0C4E68000000000000000000000000003E
:040000050800392195
:00000001FF
